{
  "_format": "hh-sol-artifact-1",
  "contractName": "MonopolyAssets",
  "sourceName": "contracts/MonopolyAssets.sol",
  "abi": [
    {
      "inputs": [],
      "stateMutability": "nonpayable",
      "type": "constructor"
    },
    {
      "inputs": [
        {
          "internalType": "address",
          "name": "sender",
          "type": "address"
        },
        {
          "internalType": "uint256",
          "name": "balance",
          "type": "uint256"
        },
        {
          "internalType": "uint256",
          "name": "needed",
          "type": "uint256"
        },
        {
          "internalType": "uint256",
          "name": "tokenId",
          "type": "uint256"
        }
      ],
      "name": "ERC1155InsufficientBalance",
      "type": "error"
    },
    {
      "inputs": [
        {
          "internalType": "address",
          "name": "approver",
          "type": "address"
        }
      ],
      "name": "ERC1155InvalidApprover",
      "type": "error"
    },
    {
      "inputs": [
        {
          "internalType": "uint256",
          "name": "idsLength",
          "type": "uint256"
        },
        {
          "internalType": "uint256",
          "name": "valuesLength",
          "type": "uint256"
        }
      ],
      "name": "ERC1155InvalidArrayLength",
      "type": "error"
    },
    {
      "inputs": [
        {
          "internalType": "address",
          "name": "operator",
          "type": "address"
        }
      ],
      "name": "ERC1155InvalidOperator",
      "type": "error"
    },
    {
      "inputs": [
        {
          "internalType": "address",
          "name": "receiver",
          "type": "address"
        }
      ],
      "name": "ERC1155InvalidReceiver",
      "type": "error"
    },
    {
      "inputs": [
        {
          "internalType": "address",
          "name": "sender",
          "type": "address"
        }
      ],
      "name": "ERC1155InvalidSender",
      "type": "error"
    },
    {
      "inputs": [
        {
          "internalType": "address",
          "name": "operator",
          "type": "address"
        },
        {
          "internalType": "address",
          "name": "owner",
          "type": "address"
        }
      ],
      "name": "ERC1155MissingApprovalForAll",
      "type": "error"
    },
    {
      "inputs": [
        {
          "internalType": "address",
          "name": "owner",
          "type": "address"
        }
      ],
      "name": "OwnableInvalidOwner",
      "type": "error"
    },
    {
      "inputs": [
        {
          "internalType": "address",
          "name": "account",
          "type": "address"
        }
      ],
      "name": "OwnableUnauthorizedAccount",
      "type": "error"
    },
    {
      "inputs": [],
      "name": "ReentrancyGuardReentrantCall",
      "type": "error"
    },
    {
      "anonymous": false,
      "inputs": [
        {
          "indexed": true,
          "internalType": "address",
          "name": "account",
          "type": "address"
        },
        {
          "indexed": true,
          "internalType": "address",
          "name": "operator",
          "type": "address"
        },
        {
          "indexed": false,
          "internalType": "bool",
          "name": "approved",
          "type": "bool"
        }
      ],
      "name": "ApprovalForAll",
      "type": "event"
    },
    {
      "anonymous": false,
      "inputs": [
        {
          "indexed": true,
          "internalType": "address",
          "name": "buyer",
          "type": "address"
        },
        {
          "indexed": true,
          "internalType": "uint256",
          "name": "tokenId",
          "type": "uint256"
        },
        {
          "indexed": false,
          "internalType": "uint256",
          "name": "amount",
          "type": "uint256"
        },
        {
          "indexed": false,
          "internalType": "uint256",
          "name": "paid",
          "type": "uint256"
        }
      ],
      "name": "AssetBought",
      "type": "event"
    },
    {
      "anonymous": false,
      "inputs": [
        {
          "indexed": true,
          "internalType": "uint256",
          "name": "tokenId",
          "type": "uint256"
        },
        {
          "indexed": false,
          "internalType": "string",
          "name": "name",
          "type": "string"
        },
        {
          "indexed": false,
          "internalType": "enum MonopolyAssets.AssetType",
          "name": "assetType",
          "type": "uint8"
        },
        {
          "indexed": false,
          "internalType": "uint256",
          "name": "value",
          "type": "uint256"
        },
        {
          "indexed": false,
          "internalType": "string",
          "name": "ipfsHash",
          "type": "string"
        }
      ],
      "name": "AssetCreated",
      "type": "event"
    },
    {
      "anonymous": false,
      "inputs": [
        {
          "indexed": true,
          "internalType": "address",
          "name": "to",
          "type": "address"
        },
        {
          "indexed": true,
          "internalType": "uint256",
          "name": "tokenId",
          "type": "uint256"
        },
        {
          "indexed": false,
          "internalType": "uint256",
          "name": "amount",
          "type": "uint256"
        }
      ],
      "name": "AssetMinted",
      "type": "event"
    },
    {
      "anonymous": false,
      "inputs": [
        {
          "indexed": true,
          "internalType": "address",
          "name": "previousOwner",
          "type": "address"
        },
        {
          "indexed": true,
          "internalType": "address",
          "name": "newOwner",
          "type": "address"
        }
      ],
      "name": "OwnershipTransferred",
      "type": "event"
    },
    {
      "anonymous": false,
      "inputs": [
        {
          "indexed": true,
          "internalType": "address",
          "name": "maker",
          "type": "address"
        },
        {
          "indexed": true,
          "internalType": "address",
          "name": "counterparty",
          "type": "address"
        },
        {
          "indexed": false,
          "internalType": "uint256",
          "name": "idGive",
          "type": "uint256"
        },
        {
          "indexed": false,
          "internalType": "uint256",
          "name": "amountGive",
          "type": "uint256"
        },
        {
          "indexed": false,
          "internalType": "uint256",
          "name": "idWant",
          "type": "uint256"
        },
        {
          "indexed": false,
          "internalType": "uint256",
          "name": "amountWant",
          "type": "uint256"
        }
      ],
      "name": "TradeExecuted",
      "type": "event"
    },
    {
      "anonymous": false,
      "inputs": [
        {
          "indexed": true,
          "internalType": "address",
          "name": "operator",
          "type": "address"
        },
        {
          "indexed": true,
          "internalType": "address",
          "name": "from",
          "type": "address"
        },
        {
          "indexed": true,
          "internalType": "address",
          "name": "to",
          "type": "address"
        },
        {
          "indexed": false,
          "internalType": "uint256[]",
          "name": "ids",
          "type": "uint256[]"
        },
        {
          "indexed": false,
          "internalType": "uint256[]",
          "name": "values",
          "type": "uint256[]"
        }
      ],
      "name": "TransferBatch",
      "type": "event"
    },
    {
      "anonymous": false,
      "inputs": [
        {
          "indexed": true,
          "internalType": "address",
          "name": "operator",
          "type": "address"
        },
        {
          "indexed": true,
          "internalType": "address",
          "name": "from",
          "type": "address"
        },
        {
          "indexed": true,
          "internalType": "address",
          "name": "to",
          "type": "address"
        },
        {
          "indexed": false,
          "internalType": "uint256",
          "name": "id",
          "type": "uint256"
        },
        {
          "indexed": false,
          "internalType": "uint256",
          "name": "value",
          "type": "uint256"
        }
      ],
      "name": "TransferSingle",
      "type": "event"
    },
    {
      "anonymous": false,
      "inputs": [
        {
          "indexed": false,
          "internalType": "string",
          "name": "value",
          "type": "string"
        },
        {
          "indexed": true,
          "internalType": "uint256",
          "name": "id",
          "type": "uint256"
        }
      ],
      "name": "URI",
      "type": "event"
    },
    {
      "inputs": [],
      "name": "COOLDOWN_SECONDS",
      "outputs": [
        {
          "internalType": "uint256",
          "name": "",
          "type": "uint256"
        }
      ],
      "stateMutability": "view",
      "type": "function"
    },
    {
      "inputs": [],
      "name": "LOCK_SECONDS",
      "outputs": [
        {
          "internalType": "uint256",
          "name": "",
          "type": "uint256"
        }
      ],
      "stateMutability": "view",
      "type": "function"
    },
    {
      "inputs": [],
      "name": "MAX_UNIQUE_RESOURCES",
      "outputs": [
        {
          "internalType": "uint256",
          "name": "",
          "type": "uint256"
        }
      ],
      "stateMutability": "view",
      "type": "function"
    },
    {
      "inputs": [
        {
          "internalType": "address",
          "name": "account",
          "type": "address"
        },
        {
          "internalType": "uint256",
          "name": "id",
          "type": "uint256"
        }
      ],
      "name": "balanceOf",
      "outputs": [
        {
          "internalType": "uint256",
          "name": "",
          "type": "uint256"
        }
      ],
      "stateMutability": "view",
      "type": "function"
    },
    {
      "inputs": [
        {
          "internalType": "address[]",
          "name": "accounts",
          "type": "address[]"
        },
        {
          "internalType": "uint256[]",
          "name": "ids",
          "type": "uint256[]"
        }
      ],
      "name": "balanceOfBatch",
      "outputs": [
        {
          "internalType": "uint256[]",
          "name": "",
          "type": "uint256[]"
        }
      ],
      "stateMutability": "view",
      "type": "function"
    },
    {
      "inputs": [
        {
          "internalType": "uint256",
          "name": "tokenId",
          "type": "uint256"
        }
      ],
      "name": "buyAsset",
      "outputs": [],
      "stateMutability": "payable",
      "type": "function"
    },
    {
      "inputs": [
        {
          "internalType": "string",
          "name": "name",
          "type": "string"
        },
        {
          "internalType": "enum MonopolyAssets.AssetType",
          "name": "assetType",
          "type": "uint8"
        },
        {
          "internalType": "uint256",
          "name": "value",
          "type": "uint256"
        },
        {
          "internalType": "string",
          "name": "ipfsHash",
          "type": "string"
        }
      ],
      "name": "createAsset",
      "outputs": [
        {
          "internalType": "uint256",
          "name": "tokenId",
          "type": "uint256"
        }
      ],
      "stateMutability": "nonpayable",
      "type": "function"
    },
    {
      "inputs": [
        {
          "internalType": "uint256",
          "name": "tokenId",
          "type": "uint256"
        }
      ],
      "name": "getAsset",
      "outputs": [
        {
          "components": [
            {
              "internalType": "string",
              "name": "name",
              "type": "string"
            },
            {
              "internalType": "enum MonopolyAssets.AssetType",
              "name": "assetType",
              "type": "uint8"
            },
            {
              "internalType": "uint256",
              "name": "value",
              "type": "uint256"
            },
            {
              "internalType": "string",
              "name": "ipfsHash",
              "type": "string"
            },
            {
              "internalType": "uint256",
              "name": "createdAt",
              "type": "uint256"
            },
            {
              "internalType": "uint256",
              "name": "lastTransferAt",
              "type": "uint256"
            }
          ],
          "internalType": "struct MonopolyAssets.AssetInfo",
          "name": "",
          "type": "tuple"
        }
      ],
      "stateMutability": "view",
      "type": "function"
    },
    {
      "inputs": [],
      "name": "getNextTokenId",
      "outputs": [
        {
          "internalType": "uint256",
          "name": "",
          "type": "uint256"
        }
      ],
      "stateMutability": "view",
      "type": "function"
    },
    {
      "inputs": [
        {
          "internalType": "uint256",
          "name": "tokenId",
          "type": "uint256"
        }
      ],
      "name": "getPreviousOwners",
      "outputs": [
        {
          "internalType": "address[]",
          "name": "",
          "type": "address[]"
        }
      ],
      "stateMutability": "view",
      "type": "function"
    },
    {
      "inputs": [
        {
          "internalType": "address",
          "name": "account",
          "type": "address"
        },
        {
          "internalType": "address",
          "name": "operator",
          "type": "address"
        }
      ],
      "name": "isApprovedForAll",
      "outputs": [
        {
          "internalType": "bool",
          "name": "",
          "type": "bool"
        }
      ],
      "stateMutability": "view",
      "type": "function"
    },
    {
      "inputs": [
        {
          "internalType": "address",
          "name": "",
          "type": "address"
        }
      ],
      "name": "lastActionAt",
      "outputs": [
        {
          "internalType": "uint256",
          "name": "",
          "type": "uint256"
        }
      ],
      "stateMutability": "view",
      "type": "function"
    },
    {
      "inputs": [
        {
          "internalType": "address",
          "name": "",
          "type": "address"
        },
        {
          "internalType": "uint256",
          "name": "",
          "type": "uint256"
        }
      ],
      "name": "lockedUntil",
      "outputs": [
        {
          "internalType": "uint256",
          "name": "",
          "type": "uint256"
        }
      ],
      "stateMutability": "view",
      "type": "function"
    },
    {
      "inputs": [
        {
          "internalType": "address",
          "name": "to",
          "type": "address"
        },
        {
          "internalType": "uint256",
          "name": "tokenId",
          "type": "uint256"
        },
        {
          "internalType": "uint256",
          "name": "amount",
          "type": "uint256"
        }
      ],
      "name": "mintTo",
      "outputs": [],
      "stateMutability": "nonpayable",
      "type": "function"
    },
    {
      "inputs": [],
      "name": "owner",
      "outputs": [
        {
          "internalType": "address",
          "name": "",
          "type": "address"
        }
      ],
      "stateMutability": "view",
      "type": "function"
    },
    {
      "inputs": [],
      "name": "renounceOwnership",
      "outputs": [],
      "stateMutability": "nonpayable",
      "type": "function"
    },
    {
      "inputs": [
        {
          "internalType": "address",
          "name": "from",
          "type": "address"
        },
        {
          "internalType": "address",
          "name": "to",
          "type": "address"
        },
        {
          "internalType": "uint256[]",
          "name": "ids",
          "type": "uint256[]"
        },
        {
          "internalType": "uint256[]",
          "name": "values",
          "type": "uint256[]"
        },
        {
          "internalType": "bytes",
          "name": "data",
          "type": "bytes"
        }
      ],
      "name": "safeBatchTransferFrom",
      "outputs": [],
      "stateMutability": "nonpayable",
      "type": "function"
    },
    {
      "inputs": [
        {
          "internalType": "address",
          "name": "from",
          "type": "address"
        },
        {
          "internalType": "address",
          "name": "to",
          "type": "address"
        },
        {
          "internalType": "uint256",
          "name": "id",
          "type": "uint256"
        },
        {
          "internalType": "uint256",
          "name": "value",
          "type": "uint256"
        },
        {
          "internalType": "bytes",
          "name": "data",
          "type": "bytes"
        }
      ],
      "name": "safeTransferFrom",
      "outputs": [],
      "stateMutability": "nonpayable",
      "type": "function"
    },
    {
      "inputs": [
        {
          "internalType": "address",
          "name": "operator",
          "type": "address"
        },
        {
          "internalType": "bool",
          "name": "approved",
          "type": "bool"
        }
      ],
      "name": "setApprovalForAll",
      "outputs": [],
      "stateMutability": "nonpayable",
      "type": "function"
    },
    {
      "inputs": [
        {
          "internalType": "bytes4",
          "name": "interfaceId",
          "type": "bytes4"
        }
      ],
      "name": "supportsInterface",
      "outputs": [
        {
          "internalType": "bool",
          "name": "",
          "type": "bool"
        }
      ],
      "stateMutability": "view",
      "type": "function"
    },
    {
      "inputs": [
        {
          "internalType": "address",
          "name": "counterparty",
          "type": "address"
        },
        {
          "internalType": "uint256",
          "name": "idGive",
          "type": "uint256"
        },
        {
          "internalType": "uint256",
          "name": "amountGive",
          "type": "uint256"
        },
        {
          "internalType": "uint256",
          "name": "idWant",
          "type": "uint256"
        },
        {
          "internalType": "uint256",
          "name": "amountWant",
          "type": "uint256"
        }
      ],
      "name": "trade",
      "outputs": [],
      "stateMutability": "nonpayable",
      "type": "function"
    },
    {
      "inputs": [
        {
          "internalType": "address",
          "name": "newOwner",
          "type": "address"
        }
      ],
      "name": "transferOwnership",
      "outputs": [],
      "stateMutability": "nonpayable",
      "type": "function"
    },
    {
      "inputs": [
        {
          "internalType": "address",
          "name": "",
          "type": "address"
        }
      ],
      "name": "uniqueOwnedCount",
      "outputs": [
        {
          "internalType": "uint256",
          "name": "",
          "type": "uint256"
        }
      ],
      "stateMutability": "view",
      "type": "function"
    },
    {
      "inputs": [
        {
          "internalType": "uint256",
          "name": "",
          "type": "uint256"
        }
      ],
      "name": "uri",
      "outputs": [
        {
          "internalType": "string",
          "name": "",
          "type": "string"
        }
      ],
      "stateMutability": "view",
      "type": "function"
    }
  ],
  "bytecode": "0x6080604052600160095534801561001557600080fd5b503360405180602001604052806000815250610036816100c660201b60201c565b50600073ffffffffffffffffffffffffffffffffffffffff168173ffffffffffffffffffffffffffffffffffffffff16036100a95760006040517f1e4fbdf70000000000000000000000000000000000000000000000000000000081526004016100a091906101e0565b60405180910390fd5b6100b8816100d960201b60201c565b50600160048190555061051d565b80600290816100d5919061044b565b5050565b6000600360009054906101000a900473ffffffffffffffffffffffffffffffffffffffff16905081600360006101000a81548173ffffffffffffffffffffffffffffffffffffffff021916908373ffffffffffffffffffffffffffffffffffffffff1602179055508173ffffffffffffffffffffffffffffffffffffffff168173ffffffffffffffffffffffffffffffffffffffff167f8be0079c531659141344cd1fd0a4f28419497f9722a3daafe3b4186f6b6457e060405160405180910390a35050565b600073ffffffffffffffffffffffffffffffffffffffff82169050919050565b60006101ca8261019f565b9050919050565b6101da816101bf565b82525050565b60006020820190506101f560008301846101d1565b92915050565b600081519050919050565b7f4e487b7100000000000000000000000000000000000000000000000000000000600052604160045260246000fd5b7f4e487b7100000000000000000000000000000000000000000000000000000000600052602260045260246000fd5b6000600282049050600182168061027c57607f821691505b60208210810361028f5761028e610235565b5b50919050565b60008190508160005260206000209050919050565b60006020601f8301049050919050565b600082821b905092915050565b6000600883026102f77fffffffffffffffffffffffffffffffffffffffffffffffffffffffffffffffff826102ba565b61030186836102ba565b95508019841693508086168417925050509392505050565b6000819050919050565b6000819050919050565b600061034861034361033e84610319565b610323565b610319565b9050919050565b6000819050919050565b6103628361032d565b61037661036e8261034f565b8484546102c7565b825550505050565b600090565b61038b61037e565b610396818484610359565b505050565b5b818110156103ba576103af600082610383565b60018101905061039c565b5050565b601f8211156103ff576103d081610295565b6103d9846102aa565b810160208510156103e8578190505b6103fc6103f4856102aa565b83018261039b565b50505b505050565b600082821c905092915050565b600061042260001984600802610404565b1980831691505092915050565b600061043b8383610411565b9150826002028217905092915050565b610454826101fb565b67ffffffffffffffff81111561046d5761046c610206565b5b6104778254610264565b6104828282856103be565b600060209050601f8311600181146104b557600084156104a3578287015190505b6104ad858261042f565b865550610515565b601f1984166104c386610295565b60005b828110156104eb578489015182556001820191506020850194506020810190506104c6565b868310156105085784890151610504601f891682610411565b8355505b6001600288020188555050505b505050505050565b614fce8061052c6000396000f3fe60806040526004361061014a5760003560e01c80638da5cb5b116100b6578063e985e9c51161006f578063e985e9c5146104a8578063e9a22dc3146104e5578063eac8f5b814610522578063f1a0995c1461055f578063f242432a1461059c578063f2fde38b146105c55761014a565b80638da5cb5b14610398578063923ad5de146103c3578063a22cb465146103ec578063be95118314610415578063caa0f92a14610440578063e5c99b6c1461046b5761014a565b80634059789f116101085780634059789f1461027457806346b4f702146102b15780634e1273f4146102ee578063715018a61461032b57806372b49d6314610342578063811480ba1461036d5761014a565b8062fdd58e1461014f57806301ffc9a71461018c5780630e89341c146101c9578063110d35b8146102065780632baf2acb146102225780632eb2c2d61461024b575b600080fd5b34801561015b57600080fd5b506101766004803603810190610171919061325e565b6105ee565b60405161018391906132ad565b60405180910390f35b34801561019857600080fd5b506101b360048036038101906101ae9190613320565b610648565b6040516101c09190613368565b60405180910390f35b3480156101d557600080fd5b506101f060048036038101906101eb9190613383565b61072a565b6040516101fd9190613440565b60405180910390f35b610220600480360381019061021b9190613383565b6107be565b005b34801561022e57600080fd5b5061024960048036038101906102449190613462565b6109a4565b005b34801561025757600080fd5b50610272600480360381019061026d91906136b2565b610b26565b005b34801561028057600080fd5b5061029b60048036038101906102969190613781565b610bce565b6040516102a891906132ad565b60405180910390f35b3480156102bd57600080fd5b506102d860048036038101906102d39190613781565b610be6565b6040516102e591906132ad565b60405180910390f35b3480156102fa57600080fd5b5061031560048036038101906103109190613871565b610bfe565b60405161032291906139a7565b60405180910390f35b34801561033757600080fd5b50610340610d07565b005b34801561034e57600080fd5b50610357610d1b565b60405161036491906132ad565b60405180910390f35b34801561037957600080fd5b50610382610d21565b60405161038f91906132ad565b60405180910390f35b3480156103a457600080fd5b506103ad610d26565b6040516103ba91906139d8565b60405180910390f35b3480156103cf57600080fd5b506103ea60048036038101906103e591906139f3565b610d50565b005b3480156103f857600080fd5b50610413600480360381019061040e9190613a9a565b611192565b005b34801561042157600080fd5b5061042a6111a8565b60405161043791906132ad565b60405180910390f35b34801561044c57600080fd5b506104556111ae565b60405161046291906132ad565b60405180910390f35b34801561047757600080fd5b50610492600480360381019061048d919061325e565b6111b8565b60405161049f91906132ad565b60405180910390f35b3480156104b457600080fd5b506104cf60048036038101906104ca9190613ada565b6111dd565b6040516104dc9190613368565b60405180910390f35b3480156104f157600080fd5b5061050c60048036038101906105079190613b9a565b611271565b60405161051991906132ad565b60405180910390f35b34801561052e57600080fd5b5061054960048036038101906105449190613383565b611507565b6040516105569190613d92565b60405180910390f35b34801561056b57600080fd5b5061058660048036038101906105819190613383565b61170a565b6040516105939190613e72565b60405180910390f35b3480156105a857600080fd5b506105c360048036038101906105be9190613e94565b611804565b005b3480156105d157600080fd5b506105ec60048036038101906105e79190613781565b6118ac565b005b600080600083815260200190815260200160002060008473ffffffffffffffffffffffffffffffffffffffff1673ffffffffffffffffffffffffffffffffffffffff16815260200190815260200160002054905092915050565b60007fd9b67a26000000000000000000000000000000000000000000000000000000007bffffffffffffffffffffffffffffffffffffffffffffffffffffffff1916827bffffffffffffffffffffffffffffffffffffffffffffffffffffffff1916148061071357507f0e89341c000000000000000000000000000000000000000000000000000000007bffffffffffffffffffffffffffffffffffffffffffffffffffffffff1916827bffffffffffffffffffffffffffffffffffffffffffffffffffffffff1916145b80610723575061072282611932565b5b9050919050565b60606002805461073990613f5a565b80601f016020809104026020016040519081016040528092919081815260200182805461076590613f5a565b80156107b25780601f10610787576101008083540402835291602001916107b2565b820191906000526020600020905b81548152906001019060200180831161079557829003601f168201915b50505050509050919050565b6107c661199c565b6000600a6000838152602001908152602001600020600401540361081f576040517f08c379a000000000000000000000000000000000000000000000000000000000815260040161081690613fd7565b60405180910390fd5b600a6000828152602001908152602001600020600201543414610877576040517f08c379a000000000000000000000000000000000000000000000000000000000815260040161086e90614043565b60405180910390fd5b61089333826001604051806020016040528060008152506119e2565b600061089d610d26565b73ffffffffffffffffffffffffffffffffffffffff16346040516108c090614094565b60006040518083038185875af1925050503d80600081146108fd576040519150601f19603f3d011682016040523d82523d6000602084013e610902565b606091505b5050905080610946576040517f08c379a000000000000000000000000000000000000000000000000000000000815260040161093d906140f5565b60405180910390fd5b813373ffffffffffffffffffffffffffffffffffffffff167f37ec759c69e88931a8be50efa2a73110c0db7a6cbb16c668924198f7f2cfdb4f60013460405161099092919061415a565b60405180910390a3506109a1611a7b565b50565b6109ac611a85565b600073ffffffffffffffffffffffffffffffffffffffff168373ffffffffffffffffffffffffffffffffffffffff1603610a1b576040517f08c379a0000000000000000000000000000000000000000000000000000000008152600401610a12906141cf565b60405180910390fd5b6000600a60008481526020019081526020016000206004015403610a74576040517f08c379a0000000000000000000000000000000000000000000000000000000008152600401610a6b90613fd7565b60405180910390fd5b60008111610ab7576040517f08c379a0000000000000000000000000000000000000000000000000000000008152600401610aae9061423b565b60405180910390fd5b610ad2838383604051806020016040528060008152506119e2565b818373ffffffffffffffffffffffffffffffffffffffff167fae6f573e24512836b8d9f28578ff4ce358e90bc8ef0bfc89838fe2775ed6b29483604051610b1991906132ad565b60405180910390a3505050565b6000610b30611b0c565b90508073ffffffffffffffffffffffffffffffffffffffff168673ffffffffffffffffffffffffffffffffffffffff1614158015610b755750610b7386826111dd565b155b15610bb95780866040517fe237d922000000000000000000000000000000000000000000000000000000008152600401610bb092919061425b565b60405180910390fd5b610bc68686868686611b14565b505050505050565b60076020528060005260406000206000915090505481565b60056020528060005260406000206000915090505481565b60608151835114610c4a57815183516040517f5b059991000000000000000000000000000000000000000000000000000000008152600401610c41929190614284565b60405180910390fd5b6000835167ffffffffffffffff811115610c6757610c666134ba565b5b604051908082528060200260200182016040528015610c955781602001602082028036833780820191505090505b50905060005b8451811015610cfc57610cd2610cba8287611c0c90919063ffffffff16565b610ccd8387611c2090919063ffffffff16565b6105ee565b828281518110610ce557610ce46142ad565b5b602002602001018181525050806001019050610c9b565b508091505092915050565b610d0f611a85565b610d196000611c34565b565b61012c81565b600481565b6000600360009054906101000a900473ffffffffffffffffffffffffffffffffffffffff16905090565b600073ffffffffffffffffffffffffffffffffffffffff168573ffffffffffffffffffffffffffffffffffffffff1603610dbf576040517f08c379a0000000000000000000000000000000000000000000000000000000008152600401610db690614328565b60405180910390fd5b3373ffffffffffffffffffffffffffffffffffffffff168573ffffffffffffffffffffffffffffffffffffffff1603610e2d576040517f08c379a0000000000000000000000000000000000000000000000000000000008152600401610e2490614394565b60405180910390fd5b600083118015610e3d5750600081115b610e7c576040517f08c379a0000000000000000000000000000000000000000000000000000000008152600401610e739061423b565b60405180910390fd5b6000600a60008681526020019081526020016000206004015403610ed5576040517f08c379a0000000000000000000000000000000000000000000000000000000008152600401610ecc90614400565b60405180910390fd5b6000600a60008481526020019081526020016000206004015403610f2e576040517f08c379a0000000000000000000000000000000000000000000000000000000008152600401610f259061446c565b60405180910390fd5b82610f3933866105ee565b1015610f7a576040517f08c379a0000000000000000000000000000000000000000000000000000000008152600401610f71906144d8565b60405180910390fd5b80610f8586846105ee565b1015610fc6576040517f08c379a0000000000000000000000000000000000000000000000000000000008152600401610fbd9061456a565b60405180910390fd5b610fd033306111dd565b61100f576040517f08c379a0000000000000000000000000000000000000000000000000000000008152600401611006906145d6565b60405180910390fd5b61101985306111dd565b611058576040517f08c379a000000000000000000000000000000000000000000000000000000000815260040161104f90614642565b60405180910390fd5b600083600a60008781526020019081526020016000206002015461107c9190614691565b9050600082600a6000868152602001908152602001600020600201546110a29190614691565b90508082146110e6576040517f08c379a00000000000000000000000000000000000000000000000000000000081526004016110dd9061471f565b60405180910390fd5b6111023388888860405180602001604052806000815250611cfa565b61111e8733868660405180602001604052806000815250611cfa565b8673ffffffffffffffffffffffffffffffffffffffff163373ffffffffffffffffffffffffffffffffffffffff167ff6afefc8f9e391fc2606fcc41f4b18431b3b44355cd7d41ada81ef26d70dbd5588888888604051611181949392919061473f565b60405180910390a350505050505050565b6111a461119d611b0c565b8383611e05565b5050565b61025881565b6000600954905090565b6006602052816000526040600020602052806000526040600020600091509150505481565b6000600160008473ffffffffffffffffffffffffffffffffffffffff1673ffffffffffffffffffffffffffffffffffffffff16815260200190815260200160002060008373ffffffffffffffffffffffffffffffffffffffff1673ffffffffffffffffffffffffffffffffffffffff16815260200190815260200160002060009054906101000a900460ff16905092915050565b600061127b611a85565b600087879050116112c1576040517f08c379a00000000000000000000000000000000000000000000000000000000081526004016112b8906147d0565b60405180910390fd5b60008411611304576040517f08c379a00000000000000000000000000000000000000000000000000000000081526004016112fb9061483c565b60405180910390fd5b6000838390501161134a576040517f08c379a0000000000000000000000000000000000000000000000000000000008152600401611341906148a8565b60405180910390fd5b6009600081548092919061135d906148c8565b9190505590506040518060c0016040528088888080601f016020809104026020016040519081016040528093929190818152602001838380828437600081840152601f19601f8201169050808301925050505050505081526020018660048111156113cb576113ca613c8b565b5b815260200185815260200184848080601f016020809104026020016040519081016040528093929190818152602001838380828437600081840152601f19601f8201169050808301925050505050505081526020014281526020016000815250600a600083815260200190815260200160002060008201518160000190816114539190614ab2565b5060208201518160010160006101000a81548160ff0219169083600481111561147f5761147e613c8b565b5b02179055506040820151816002015560608201518160030190816114a39190614ab2565b506080820151816004015560a08201518160050155905050807f29087ecf283593f758cd80ceff22b55221b9f746fdc5507160de72610f98dba68888888888886040516114f596959493929190614bc0565b60405180910390a29695505050505050565b61150f61316e565b6000600a60008481526020019081526020016000206004015403611568576040517f08c379a000000000000000000000000000000000000000000000000000000000815260040161155f90613fd7565b60405180910390fd5b600a60008381526020019081526020016000206040518060c001604052908160008201805461159690613f5a565b80601f01602080910402602001604051908101604052809291908181526020018280546115c290613f5a565b801561160f5780601f106115e45761010080835404028352916020019161160f565b820191906000526020600020905b8154815290600101906020018083116115f257829003601f168201915b505050505081526020016001820160009054906101000a900460ff16600481111561163d5761163c613c8b565b5b600481111561164f5761164e613c8b565b5b81526020016002820154815260200160038201805461166d90613f5a565b80601f016020809104026020016040519081016040528092919081815260200182805461169990613f5a565b80156116e65780601f106116bb576101008083540402835291602001916116e6565b820191906000526020600020905b8154815290600101906020018083116116c957829003601f168201915b50505050508152602001600482015481526020016005820154815250509050919050565b60606000600a60008481526020019081526020016000206004015403611765576040517f08c379a000000000000000000000000000000000000000000000000000000000815260040161175c90613fd7565b60405180910390fd5b600b60008381526020019081526020016000208054806020026020016040519081016040528092919081815260200182805480156117f857602002820191906000526020600020905b8160009054906101000a900473ffffffffffffffffffffffffffffffffffffffff1673ffffffffffffffffffffffffffffffffffffffff16815260200190600101908083116117ae575b50505050509050919050565b600061180e611b0c565b90508073ffffffffffffffffffffffffffffffffffffffff168673ffffffffffffffffffffffffffffffffffffffff1614158015611853575061185186826111dd565b155b156118975780866040517fe237d92200000000000000000000000000000000000000000000000000000000815260040161188e92919061425b565b60405180910390fd5b6118a48686868686611cfa565b505050505050565b6118b4611a85565b600073ffffffffffffffffffffffffffffffffffffffff168173ffffffffffffffffffffffffffffffffffffffff16036119265760006040517f1e4fbdf700000000000000000000000000000000000000000000000000000000815260040161191d91906139d8565b60405180910390fd5b61192f81611c34565b50565b60007f01ffc9a7000000000000000000000000000000000000000000000000000000007bffffffffffffffffffffffffffffffffffffffffffffffffffffffff1916827bffffffffffffffffffffffffffffffffffffffffffffffffffffffff1916149050919050565b6002600454036119d8576040517f3ee5aeb500000000000000000000000000000000000000000000000000000000815260040160405180910390fd5b6002600481905550565b600073ffffffffffffffffffffffffffffffffffffffff168473ffffffffffffffffffffffffffffffffffffffff1603611a545760006040517f57f447ce000000000000000000000000000000000000000000000000000000008152600401611a4b91906139d8565b60405180910390fd5b600080611a618585611f75565b91509150611a73600087848487611fa5565b505050505050565b6001600481905550565b611a8d611b0c565b73ffffffffffffffffffffffffffffffffffffffff16611aab610d26565b73ffffffffffffffffffffffffffffffffffffffff1614611b0a57611ace611b0c565b6040517f118cdaa7000000000000000000000000000000000000000000000000000000008152600401611b0191906139d8565b60405180910390fd5b565b600033905090565b600073ffffffffffffffffffffffffffffffffffffffff168473ffffffffffffffffffffffffffffffffffffffff1603611b865760006040517f57f447ce000000000000000000000000000000000000000000000000000000008152600401611b7d91906139d8565b60405180910390fd5b600073ffffffffffffffffffffffffffffffffffffffff168573ffffffffffffffffffffffffffffffffffffffff1603611bf85760006040517f01a83514000000000000000000000000000000000000000000000000000000008152600401611bef91906139d8565b60405180910390fd5b611c058585858585611fa5565b5050505050565b600060208202602084010151905092915050565b600060208202602084010151905092915050565b6000600360009054906101000a900473ffffffffffffffffffffffffffffffffffffffff16905081600360006101000a81548173ffffffffffffffffffffffffffffffffffffffff021916908373ffffffffffffffffffffffffffffffffffffffff1602179055508173ffffffffffffffffffffffffffffffffffffffff168173ffffffffffffffffffffffffffffffffffffffff167f8be0079c531659141344cd1fd0a4f28419497f9722a3daafe3b4186f6b6457e060405160405180910390a35050565b600073ffffffffffffffffffffffffffffffffffffffff168473ffffffffffffffffffffffffffffffffffffffff1603611d6c5760006040517f57f447ce000000000000000000000000000000000000000000000000000000008152600401611d6391906139d8565b60405180910390fd5b600073ffffffffffffffffffffffffffffffffffffffff168573ffffffffffffffffffffffffffffffffffffffff1603611dde5760006040517f01a83514000000000000000000000000000000000000000000000000000000008152600401611dd591906139d8565b60405180910390fd5b600080611deb8585611f75565b91509150611dfc8787848487611fa5565b50505050505050565b600073ffffffffffffffffffffffffffffffffffffffff168273ffffffffffffffffffffffffffffffffffffffff1603611e775760006040517fced3e100000000000000000000000000000000000000000000000000000000008152600401611e6e91906139d8565b60405180910390fd5b80600160008573ffffffffffffffffffffffffffffffffffffffff1673ffffffffffffffffffffffffffffffffffffffff16815260200190815260200160002060008473ffffffffffffffffffffffffffffffffffffffff1673ffffffffffffffffffffffffffffffffffffffff16815260200190815260200160002060006101000a81548160ff0219169083151502179055508173ffffffffffffffffffffffffffffffffffffffff168373ffffffffffffffffffffffffffffffffffffffff167f17307eab39ab6107e8899845ad3d59bd9653f200f220920489ca2b5937696c3183604051611f689190613368565b60405180910390a3505050565b60608060405191506001825283602083015260408201905060018152826020820152604081016040529250929050565b611fb185858585612057565b600073ffffffffffffffffffffffffffffffffffffffff168473ffffffffffffffffffffffffffffffffffffffff1614612050576000611fef611b0c565b9050600184510361203f576000612010600086611c2090919063ffffffff16565b90506000612028600086611c2090919063ffffffff16565b9050612038838989858589612482565b505061204e565b61204d818787878787612636565b5b505b5050505050565b600073ffffffffffffffffffffffffffffffffffffffff168473ffffffffffffffffffffffffffffffffffffffff160361209957612094836127ea565b6120a3565b6120a2846127ea565b5b600073ffffffffffffffffffffffffffffffffffffffff168473ffffffffffffffffffffffffffffffffffffffff16146121165760005b825181101561211457612107858483815181106120fa576120f96142ad565b5b60200260200101516128b2565b80806001019150506120da565b505b6121228484848461297f565b600073ffffffffffffffffffffffffffffffffffffffff168373ffffffffffffffffffffffffffffffffffffffff16146121df5760005b82518110156121dd576000600a600085848151811061217b5761217a6142ad565b5b6020026020010151815260200190815260200160002060040154146121d05742600a60008584815181106121b2576121b16142ad565b5b60200260200101518152602001908152602001600020600501819055505b8080600101915050612159565b505b600073ffffffffffffffffffffffffffffffffffffffff168473ffffffffffffffffffffffffffffffffffffffff160361225c5742600560008573ffffffffffffffffffffffffffffffffffffffff1673ffffffffffffffffffffffffffffffffffffffff168152602001908152602001600020819055506122a1565b42600560008673ffffffffffffffffffffffffffffffffffffffff1673ffffffffffffffffffffffffffffffffffffffff168152602001908152602001600020819055505b600073ffffffffffffffffffffffffffffffffffffffff168373ffffffffffffffffffffffffffffffffffffffff161461236c5760005b825181101561236a57610258426122ef9190614c17565b600660008673ffffffffffffffffffffffffffffffffffffffff1673ffffffffffffffffffffffffffffffffffffffff1681526020019081526020016000206000858481518110612343576123426142ad565b5b602002602001015181526020019081526020016000208190555080806001019150506122d8565b505b600073ffffffffffffffffffffffffffffffffffffffff168473ffffffffffffffffffffffffffffffffffffffff16141580156123d65750600073ffffffffffffffffffffffffffffffffffffffff168373ffffffffffffffffffffffffffffffffffffffff1614155b1561241a5760005b82518110156124185761240b8382815181106123fd576123fc6142ad565b5b602002602001015186612d27565b80806001019150506123de565b505b60005b825181101561247b5761244a8584838151811061243d5761243c6142ad565b5b6020026020010151612e8c565b61246e84848381518110612461576124606142ad565b5b6020026020010151612e8c565b808060010191505061241d565b5050505050565b60008473ffffffffffffffffffffffffffffffffffffffff163b111561262e578373ffffffffffffffffffffffffffffffffffffffff1663f23a6e6187878686866040518663ffffffff1660e01b81526004016124e3959493929190614ca0565b6020604051808303816000875af192505050801561251f57506040513d601f19601f8201168201806040525081019061251c9190614d0f565b60015b6125a3573d806000811461254f576040519150601f19603f3d011682016040523d82523d6000602084013e612554565b606091505b50600081510361259b57846040517f57f447ce00000000000000000000000000000000000000000000000000000000815260040161259291906139d8565b60405180910390fd5b805160208201fd5b63f23a6e6160e01b7bffffffffffffffffffffffffffffffffffffffffffffffffffffffff1916817bffffffffffffffffffffffffffffffffffffffffffffffffffffffff19161461262c57846040517f57f447ce00000000000000000000000000000000000000000000000000000000815260040161262391906139d8565b60405180910390fd5b505b505050505050565b60008473ffffffffffffffffffffffffffffffffffffffff163b11156127e2578373ffffffffffffffffffffffffffffffffffffffff1663bc197c8187878686866040518663ffffffff1660e01b8152600401612697959493929190614d3c565b6020604051808303816000875af19250505080156126d357506040513d601f19601f820116820180604052508101906126d09190614d0f565b60015b612757573d8060008114612703576040519150601f19603f3d011682016040523d82523d6000602084013e612708565b606091505b50600081510361274f57846040517f57f447ce00000000000000000000000000000000000000000000000000000000815260040161274691906139d8565b60405180910390fd5b805160208201fd5b63bc197c8160e01b7bffffffffffffffffffffffffffffffffffffffffffffffffffffffff1916817bffffffffffffffffffffffffffffffffffffffffffffffffffffffff1916146127e057846040517f57f447ce0000000000000000000000000000000000000000000000000000000081526004016127d791906139d8565b60405180910390fd5b505b505050505050565b600073ffffffffffffffffffffffffffffffffffffffff168173ffffffffffffffffffffffffffffffffffffffff1603156128af5761012c600560008373ffffffffffffffffffffffffffffffffffffffff1673ffffffffffffffffffffffffffffffffffffffff1681526020019081526020016000205461286c9190614c17565b4210156128ae576040517f08c379a00000000000000000000000000000000000000000000000000000000081526004016128a590614df0565b60405180910390fd5b5b50565b600073ffffffffffffffffffffffffffffffffffffffff168273ffffffffffffffffffffffffffffffffffffffff16031561297b57600660008373ffffffffffffffffffffffffffffffffffffffff1673ffffffffffffffffffffffffffffffffffffffff16815260200190815260200160002060008281526020019081526020016000205442101561297a576040517f08c379a000000000000000000000000000000000000000000000000000000000815260040161297190614e5c565b60405180910390fd5b5b5050565b80518251146129c957815181516040517f5b0599910000000000000000000000000000000000000000000000000000000081526004016129c0929190614284565b60405180910390fd5b60006129d3611b0c565b905060005b8351811015612be25760006129f68286611c2090919063ffffffff16565b90506000612a0d8386611c2090919063ffffffff16565b9050600073ffffffffffffffffffffffffffffffffffffffff168873ffffffffffffffffffffffffffffffffffffffff1614612b3a57600080600084815260200190815260200160002060008a73ffffffffffffffffffffffffffffffffffffffff1673ffffffffffffffffffffffffffffffffffffffff16815260200190815260200160002054905081811015612ae257888183856040517f03dee4c5000000000000000000000000000000000000000000000000000000008152600401612ad99493929190614e7c565b60405180910390fd5b81810360008085815260200190815260200160002060008b73ffffffffffffffffffffffffffffffffffffffff1673ffffffffffffffffffffffffffffffffffffffff16815260200190815260200160002081905550505b600073ffffffffffffffffffffffffffffffffffffffff168773ffffffffffffffffffffffffffffffffffffffff1614612bd5578060008084815260200190815260200160002060008973ffffffffffffffffffffffffffffffffffffffff1673ffffffffffffffffffffffffffffffffffffffff1681526020019081526020016000206000828254612bcd9190614c17565b925050819055505b50508060010190506129d8565b506001835103612ca1576000612c02600085611c2090919063ffffffff16565b90506000612c1a600085611c2090919063ffffffff16565b90508573ffffffffffffffffffffffffffffffffffffffff168773ffffffffffffffffffffffffffffffffffffffff168473ffffffffffffffffffffffffffffffffffffffff167fc3d58168c5ae7397731d063d5bbf3d657854427343f4c083240f7aacaa2d0f628585604051612c92929190614284565b60405180910390a45050612d20565b8373ffffffffffffffffffffffffffffffffffffffff168573ffffffffffffffffffffffffffffffffffffffff168273ffffffffffffffffffffffffffffffffffffffff167f4a39dc06d4c0dbc64b70af90fd698a233a518aa5d07e595d983b8c0526c8f7fb8686604051612d17929190614ec1565b60405180910390a45b5050505050565b600073ffffffffffffffffffffffffffffffffffffffff168173ffffffffffffffffffffffffffffffffffffffff160315612e88576000600a6000848152602001908152602001600020600401540315612e88576000600b60008481526020019081526020016000209050600081805490501480612e1e57508173ffffffffffffffffffffffffffffffffffffffff168160018380549050612dc99190614ef8565b81548110612dda57612dd96142ad565b5b9060005260206000200160009054906101000a900473ffffffffffffffffffffffffffffffffffffffff1673ffffffffffffffffffffffffffffffffffffffff1614155b15612e865780829080600181540180825580915050600190039060005260206000200160009091909190916101000a81548173ffffffffffffffffffffffffffffffffffffffff021916908373ffffffffffffffffffffffffffffffffffffffff1602179055505b505b5050565b600073ffffffffffffffffffffffffffffffffffffffff168273ffffffffffffffffffffffffffffffffffffffff16031561316a576000612ecd83836105ee565b90506000600860008573ffffffffffffffffffffffffffffffffffffffff1673ffffffffffffffffffffffffffffffffffffffff168152602001908152602001600020600084815260200190815260200160002060009054906101000a900460ff16905080158015612f3f5750600082115b156130945760046001600760008773ffffffffffffffffffffffffffffffffffffffff1673ffffffffffffffffffffffffffffffffffffffff16815260200190815260200160002054612f929190614c17565b1115612fd3576040517f08c379a0000000000000000000000000000000000000000000000000000000008152600401612fca90614f78565b60405180910390fd5b6001600860008673ffffffffffffffffffffffffffffffffffffffff1673ffffffffffffffffffffffffffffffffffffffff168152602001908152602001600020600085815260200190815260200160002060006101000a81548160ff0219169083151502179055506001600760008673ffffffffffffffffffffffffffffffffffffffff1673ffffffffffffffffffffffffffffffffffffffff168152602001908152602001600020600082825461308c9190614c17565b925050819055505b8080156130a15750600082145b15613167576000600860008673ffffffffffffffffffffffffffffffffffffffff1673ffffffffffffffffffffffffffffffffffffffff168152602001908152602001600020600085815260200190815260200160002060006101000a81548160ff0219169083151502179055506001600760008673ffffffffffffffffffffffffffffffffffffffff1673ffffffffffffffffffffffffffffffffffffffff168152602001908152602001600020600082825461315f9190614ef8565b925050819055505b50505b5050565b6040518060c00160405280606081526020016000600481111561319457613193613c8b565b5b8152602001600081526020016060815260200160008152602001600081525090565b6000604051905090565b600080fd5b600080fd5b600073ffffffffffffffffffffffffffffffffffffffff82169050919050565b60006131f5826131ca565b9050919050565b613205816131ea565b811461321057600080fd5b50565b600081359050613222816131fc565b92915050565b6000819050919050565b61323b81613228565b811461324657600080fd5b50565b60008135905061325881613232565b92915050565b60008060408385031215613275576132746131c0565b5b600061328385828601613213565b925050602061329485828601613249565b9150509250929050565b6132a781613228565b82525050565b60006020820190506132c2600083018461329e565b92915050565b60007fffffffff0000000000000000000000000000000000000000000000000000000082169050919050565b6132fd816132c8565b811461330857600080fd5b50565b60008135905061331a816132f4565b92915050565b600060208284031215613336576133356131c0565b5b60006133448482850161330b565b91505092915050565b60008115159050919050565b6133628161334d565b82525050565b600060208201905061337d6000830184613359565b92915050565b600060208284031215613399576133986131c0565b5b60006133a784828501613249565b91505092915050565b600081519050919050565b600082825260208201905092915050565b60005b838110156133ea5780820151818401526020810190506133cf565b60008484015250505050565b6000601f19601f8301169050919050565b6000613412826133b0565b61341c81856133bb565b935061342c8185602086016133cc565b613435816133f6565b840191505092915050565b6000602082019050818103600083015261345a8184613407565b905092915050565b60008060006060848603121561347b5761347a6131c0565b5b600061348986828701613213565b935050602061349a86828701613249565b92505060406134ab86828701613249565b9150509250925092565b600080fd5b7f4e487b7100000000000000000000000000000000000000000000000000000000600052604160045260246000fd5b6134f2826133f6565b810181811067ffffffffffffffff82111715613511576135106134ba565b5b80604052505050565b60006135246131b6565b905061353082826134e9565b919050565b600067ffffffffffffffff8211156135505761354f6134ba565b5b602082029050602081019050919050565b600080fd5b600061357961357484613535565b61351a565b9050808382526020820190506020840283018581111561359c5761359b613561565b5b835b818110156135c557806135b18882613249565b84526020840193505060208101905061359e565b5050509392505050565b600082601f8301126135e4576135e36134b5565b5b81356135f4848260208601613566565b91505092915050565b600080fd5b600067ffffffffffffffff82111561361d5761361c6134ba565b5b613626826133f6565b9050602081019050919050565b82818337600083830152505050565b600061365561365084613602565b61351a565b905082815260208101848484011115613671576136706135fd565b5b61367c848285613633565b509392505050565b600082601f830112613699576136986134b5565b5b81356136a9848260208601613642565b91505092915050565b600080600080600060a086880312156136ce576136cd6131c0565b5b60006136dc88828901613213565b95505060206136ed88828901613213565b945050604086013567ffffffffffffffff81111561370e5761370d6131c5565b5b61371a888289016135cf565b935050606086013567ffffffffffffffff81111561373b5761373a6131c5565b5b613747888289016135cf565b925050608086013567ffffffffffffffff811115613768576137676131c5565b5b61377488828901613684565b9150509295509295909350565b600060208284031215613797576137966131c0565b5b60006137a584828501613213565b91505092915050565b600067ffffffffffffffff8211156137c9576137c86134ba565b5b602082029050602081019050919050565b60006137ed6137e8846137ae565b61351a565b905080838252602082019050602084028301858111156138105761380f613561565b5b835b8181101561383957806138258882613213565b845260208401935050602081019050613812565b5050509392505050565b600082601f830112613858576138576134b5565b5b81356138688482602086016137da565b91505092915050565b60008060408385031215613888576138876131c0565b5b600083013567ffffffffffffffff8111156138a6576138a56131c5565b5b6138b285828601613843565b925050602083013567ffffffffffffffff8111156138d3576138d26131c5565b5b6138df858286016135cf565b9150509250929050565b600081519050919050565b600082825260208201905092915050565b6000819050602082019050919050565b61391e81613228565b82525050565b60006139308383613915565b60208301905092915050565b6000602082019050919050565b6000613954826138e9565b61395e81856138f4565b935061396983613905565b8060005b8381101561399a5781516139818882613924565b975061398c8361393c565b92505060018101905061396d565b5085935050505092915050565b600060208201905081810360008301526139c18184613949565b905092915050565b6139d2816131ea565b82525050565b60006020820190506139ed60008301846139c9565b92915050565b600080600080600060a08688031215613a0f57613a0e6131c0565b5b6000613a1d88828901613213565b9550506020613a2e88828901613249565b9450506040613a3f88828901613249565b9350506060613a5088828901613249565b9250506080613a6188828901613249565b9150509295509295909350565b613a778161334d565b8114613a8257600080fd5b50565b600081359050613a9481613a6e565b92915050565b60008060408385031215613ab157613ab06131c0565b5b6000613abf85828601613213565b9250506020613ad085828601613a85565b9150509250929050565b60008060408385031215613af157613af06131c0565b5b6000613aff85828601613213565b9250506020613b1085828601613213565b9150509250929050565b600080fd5b60008083601f840112613b3557613b346134b5565b5b8235905067ffffffffffffffff811115613b5257613b51613b1a565b5b602083019150836001820283011115613b6e57613b6d613561565b5b9250929050565b60058110613b8257600080fd5b50565b600081359050613b9481613b75565b92915050565b60008060008060008060808789031215613bb757613bb66131c0565b5b600087013567ffffffffffffffff811115613bd557613bd46131c5565b5b613be189828a01613b1f565b96509650506020613bf489828a01613b85565b9450506040613c0589828a01613249565b935050606087013567ffffffffffffffff811115613c2657613c256131c5565b5b613c3289828a01613b1f565b92509250509295509295509295565b600082825260208201905092915050565b6000613c5d826133b0565b613c678185613c41565b9350613c778185602086016133cc565b613c80816133f6565b840191505092915050565b7f4e487b7100000000000000000000000000000000000000000000000000000000600052602160045260246000fd5b60058110613ccb57613cca613c8b565b5b50565b6000819050613cdc82613cba565b919050565b6000613cec82613cce565b9050919050565b613cfc81613ce1565b82525050565b600060c0830160008301518482036000860152613d1f8282613c52565b9150506020830151613d346020860182613cf3565b506040830151613d476040860182613915565b5060608301518482036060860152613d5f8282613c52565b9150506080830151613d746080860182613915565b5060a0830151613d8760a0860182613915565b508091505092915050565b60006020820190508181036000830152613dac8184613d02565b905092915050565b600081519050919050565b600082825260208201905092915050565b6000819050602082019050919050565b613de9816131ea565b82525050565b6000613dfb8383613de0565b60208301905092915050565b6000602082019050919050565b6000613e1f82613db4565b613e298185613dbf565b9350613e3483613dd0565b8060005b83811015613e65578151613e4c8882613def565b9750613e5783613e07565b925050600181019050613e38565b5085935050505092915050565b60006020820190508181036000830152613e8c8184613e14565b905092915050565b600080600080600060a08688031215613eb057613eaf6131c0565b5b6000613ebe88828901613213565b9550506020613ecf88828901613213565b9450506040613ee088828901613249565b9350506060613ef188828901613249565b925050608086013567ffffffffffffffff811115613f1257613f116131c5565b5b613f1e88828901613684565b9150509295509295909350565b7f4e487b7100000000000000000000000000000000000000000000000000000000600052602260045260246000fd5b60006002820490506001821680613f7257607f821691505b602082108103613f8557613f84613f2b565b5b50919050565b7f4173736574206e6f7420666f756e640000000000000000000000000000000000600082015250565b6000613fc1600f836133bb565b9150613fcc82613f8b565b602082019050919050565b60006020820190508181036000830152613ff081613fb4565b9050919050565b7f496e636f7272656374207061796d656e74000000000000000000000000000000600082015250565b600061402d6011836133bb565b915061403882613ff7565b602082019050919050565b6000602082019050818103600083015261405c81614020565b9050919050565b600081905092915050565b50565b600061407e600083614063565b91506140898261406e565b600082019050919050565b600061409f82614071565b9150819050919050565b7f5061796d656e74207472616e73666572206661696c6564000000000000000000600082015250565b60006140df6017836133bb565b91506140ea826140a9565b602082019050919050565b6000602082019050818103600083015261410e816140d2565b9050919050565b6000819050919050565b6000819050919050565b600061414461413f61413a84614115565b61411f565b613228565b9050919050565b61415481614129565b82525050565b600060408201905061416f600083018561414b565b61417c602083018461329e565b9392505050565b7f5a65726f20616464726573730000000000000000000000000000000000000000600082015250565b60006141b9600c836133bb565b91506141c482614183565b602082019050919050565b600060208201905081810360008301526141e8816141ac565b9050919050565b7f416d6f756e74206d757374206265203e20300000000000000000000000000000600082015250565b60006142256012836133bb565b9150614230826141ef565b602082019050919050565b6000602082019050818103600083015261425481614218565b9050919050565b600060408201905061427060008301856139c9565b61427d60208301846139c9565b9392505050565b6000604082019050614299600083018561329e565b6142a6602083018461329e565b9392505050565b7f4e487b7100000000000000000000000000000000000000000000000000000000600052603260045260246000fd5b7f5a65726f20636f756e7465727061727479000000000000000000000000000000600082015250565b60006143126011836133bb565b915061431d826142dc565b602082019050919050565b6000602082019050818103600083015261434181614305565b9050919050565b7f53616d6520616464726573730000000000000000000000000000000000000000600082015250565b600061437e600c836133bb565b915061438982614348565b602082019050919050565b600060208201905081810360008301526143ad81614371565b9050919050565b7f47697665206173736574206e6f7420666f756e64000000000000000000000000600082015250565b60006143ea6014836133bb565b91506143f5826143b4565b602082019050919050565b60006020820190508181036000830152614419816143dd565b9050919050565b7f57616e74206173736574206e6f7420666f756e64000000000000000000000000600082015250565b60006144566014836133bb565b915061446182614420565b602082019050919050565b6000602082019050818103600083015261448581614449565b9050919050565b7f496e73756666696369656e7420676976652062616c616e636500000000000000600082015250565b60006144c26019836133bb565b91506144cd8261448c565b602082019050919050565b600060208201905081810360008301526144f1816144b5565b9050919050565b7f436f756e746572706172747920696e73756666696369656e742062616c616e6360008201527f6500000000000000000000000000000000000000000000000000000000000000602082015250565b60006145546021836133bb565b915061455f826144f8565b604082019050919050565b6000602082019050818103600083015261458381614547565b9050919050565b7f4d616b6572206e6f7420617070726f7665640000000000000000000000000000600082015250565b60006145c06012836133bb565b91506145cb8261458a565b602082019050919050565b600060208201905081810360008301526145ef816145b3565b9050919050565b7f436f756e7465727061727479206e6f7420617070726f76656400000000000000600082015250565b600061462c6019836133bb565b9150614637826145f6565b602082019050919050565b6000602082019050818103600083015261465b8161461f565b9050919050565b7f4e487b7100000000000000000000000000000000000000000000000000000000600052601160045260246000fd5b600061469c82613228565b91506146a783613228565b92508282026146b581613228565b915082820484148315176146cc576146cb614662565b5b5092915050565b7f5472616465206e6f742066616972000000000000000000000000000000000000600082015250565b6000614709600e836133bb565b9150614714826146d3565b602082019050919050565b60006020820190508181036000830152614738816146fc565b9050919050565b6000608082019050614754600083018761329e565b614761602083018661329e565b61476e604083018561329e565b61477b606083018461329e565b95945050505050565b7f4e616d6520726571756972656400000000000000000000000000000000000000600082015250565b60006147ba600d836133bb565b91506147c582614784565b602082019050919050565b600060208201905081810360008301526147e9816147ad565b9050919050565b7f56616c7565206d757374206265203e2030000000000000000000000000000000600082015250565b60006148266011836133bb565b9150614831826147f0565b602082019050919050565b6000602082019050818103600083015261485581614819565b9050919050565b7f4950465320726571756972656400000000000000000000000000000000000000600082015250565b6000614892600d836133bb565b915061489d8261485c565b602082019050919050565b600060208201905081810360008301526148c181614885565b9050919050565b60006148d382613228565b91507fffffffffffffffffffffffffffffffffffffffffffffffffffffffffffffffff820361490557614904614662565b5b600182019050919050565b60008190508160005260206000209050919050565b60006020601f8301049050919050565b600082821b905092915050565b6000600883026149727fffffffffffffffffffffffffffffffffffffffffffffffffffffffffffffffff82614935565b61497c8683614935565b95508019841693508086168417925050509392505050565b60006149af6149aa6149a584613228565b61411f565b613228565b9050919050565b6000819050919050565b6149c983614994565b6149dd6149d5826149b6565b848454614942565b825550505050565b600090565b6149f26149e5565b6149fd8184846149c0565b505050565b5b81811015614a2157614a166000826149ea565b600181019050614a03565b5050565b601f821115614a6657614a3781614910565b614a4084614925565b81016020851015614a4f578190505b614a63614a5b85614925565b830182614a02565b50505b505050565b600082821c905092915050565b6000614a8960001984600802614a6b565b1980831691505092915050565b6000614aa28383614a78565b9150826002028217905092915050565b614abb826133b0565b67ffffffffffffffff811115614ad457614ad36134ba565b5b614ade8254613f5a565b614ae9828285614a25565b600060209050601f831160018114614b1c5760008415614b0a578287015190505b614b148582614a96565b865550614b7c565b601f198416614b2a86614910565b60005b82811015614b5257848901518255600182019150602085019450602081019050614b2d565b86831015614b6f5784890151614b6b601f891682614a78565b8355505b6001600288020188555050505b505050505050565b6000614b9083856133bb565b9350614b9d838584613633565b614ba6836133f6565b840190509392505050565b614bba81613ce1565b82525050565b60006080820190508181036000830152614bdb81888a614b84565b9050614bea6020830187614bb1565b614bf7604083018661329e565b8181036060830152614c0a818486614b84565b9050979650505050505050565b6000614c2282613228565b9150614c2d83613228565b9250828201905080821115614c4557614c44614662565b5b92915050565b600081519050919050565b600082825260208201905092915050565b6000614c7282614c4b565b614c7c8185614c56565b9350614c8c8185602086016133cc565b614c95816133f6565b840191505092915050565b600060a082019050614cb560008301886139c9565b614cc260208301876139c9565b614ccf604083018661329e565b614cdc606083018561329e565b8181036080830152614cee8184614c67565b90509695505050505050565b600081519050614d09816132f4565b92915050565b600060208284031215614d2557614d246131c0565b5b6000614d3384828501614cfa565b91505092915050565b600060a082019050614d5160008301886139c9565b614d5e60208301876139c9565b8181036040830152614d708186613949565b90508181036060830152614d848185613949565b90508181036080830152614d988184614c67565b90509695505050505050565b7f436f6f6c646f776e206e6f742070617373656400000000000000000000000000600082015250565b6000614dda6013836133bb565b9150614de582614da4565b602082019050919050565b60006020820190508181036000830152614e0981614dcd565b9050919050565b7f546f6b656e206973206c6f636b65640000000000000000000000000000000000600082015250565b6000614e46600f836133bb565b9150614e5182614e10565b602082019050919050565b60006020820190508181036000830152614e7581614e39565b9050919050565b6000608082019050614e9160008301876139c9565b614e9e602083018661329e565b614eab604083018561329e565b614eb8606083018461329e565b95945050505050565b60006040820190508181036000830152614edb8185613949565b90508181036020830152614eef8184613949565b90509392505050565b6000614f0382613228565b9150614f0e83613228565b9250828203905081811115614f2657614f25614662565b5b92915050565b7f4d6178207265736f757263657320726561636865640000000000000000000000600082015250565b6000614f626015836133bb565b9150614f6d82614f2c565b602082019050919050565b60006020820190508181036000830152614f9181614f55565b905091905056fea2646970667358221220b20b3468b9a70e5aa93fe842065f6c6d30e9526485cbf628715fe5c0849d29e964736f6c634300081c0033",
  "linkReferences": {},
  "deployedLinkReferences": {}
}